:100000000C9450000C946D000C946D000C94410104
:100010000C946D000C946D000C946D000C946D00AC
:100020000C946D000C946D000C946D000C946D009C
:100030000C946D000C946D000C946D000C946D008C
:100040000C946D000C946D000C946D000C946D007C
:100050000C945C010C946D000C946D000C946D007C
:100060000C946D000C946D000C946D000C946D005C
:100070000C946D000C946D000C946D000C940E01AA
:100080000C946D000C946D000C946D000C946D003C
:100090000C946D000C946D000C946D000C946D002C
:1000A00011241FBECFEFCDBFDFE3DEBF28E2AEE0FD
:1000B000B8E201C01D92A831B207E1F718E2A0E052
:1000C000B8E2E1E8FBE002C005900D92AE30B10766
:1000D000D9F70E9476010C9494050C940000982F97
:1000E0008A3039F48091440885FFFCCF8DE08093FD
:1000F0004208292F392F330F330B8091440885FF95
:10010000FCCF90934208C9010895809141018F70FE
:10011000E1F70895CF92DF92EF92FF920F931F9332
:10012000CF93DF938C0182E00130110509F084E068
:100130008093660428E22A95F1F780911428EB0158
:10014000E12CF12CC8808091680480FFFCCF85E011
:100150008A95F1F70000D0901428C092C4088091CD
:10016000C30886FF4FC083E49BE49F938F930E9454
:1001700084020F900F908FEF1F928F931F92CF9258
:100180001F930F9382E59BE49F938F930E948402B9
:100190008FEFE81AF80A8DB79EB708968DBF9EBFFD
:1001A00095E0E916F10499F12196809115288E5F6A
:1001B00090911528891721F0909114289D11F8CF5E
:1001C000809114288D11BECF1F930F938CE29BE476
:1001D0009F938F930E9484020F900F900F900F9027
:1001E000809165048660809365042AE12A95F1F781
:1001F00000C0DF91CF911F910F91FF90EF90DF90A2
:10020000CF90089587FFABCF8091C408B5CF809180
:100210005000897F846080935000E2CF1F921FB608
:100220001F9211242F933F938F939F932091400807
:1002300080911628909117288130910520F041F087
:1002400080E090E00FC02D3069F481E090E004C0C0
:10025000253AA1F02D30A1F720E330E02093380AB1
:100260003093390A80931628909317289F918F9185
:100270003F912F911F901FBE1F90189582E090E034
:10028000EBCF1F921FB61F9211248F9381E08093B2
:100290004301809115288F5F809315288091380A3B
:1002A0008B3028F083508093380A1092390A8F914E
:1002B0001F901FBE1F9018951F921FB61F921124EA
:1002C0008F93809169048093690480FF0AC08FEF47
:1002D0008093380A1092390A809114288F5F809396
:1002E00014288F911F901FBE1F901895CDB7DEB7B1
:1002F0002797CDBFDEBFF89480913004887F80932C
:100300003004809130048460809330048091310403
:10031000887F80933104809131048460809331041C
:1003200080913204887F809332048091320484600B
:100330008093320480913304887F809333048091CA
:10034000330484608093330480913404887F8093E5
:1003500034048091340484608093340480913504A3
:10036000887F8093350480913504846080933504C0
:1003700080915604887F809356048091560484604F
:100380008093560480915704887F8093570480910E
:10039000570484608093570403E088ED84BF009382
:1003A000610018E01093B1048091A00481608093F3
:1003B000A0048BE890E0809348089093490880E877
:1003C0008093450880EC8093460880E098E2809313
:1003D00010289093112886E69BE40E949A0280914F
:1003E00040048160809340048091E405887F80937D
:1003F000E4058091E40582608093E4058FEF90E04E
:100400008093260A9093270A80E18093280A90938C
:10041000290A83E18093010A0093000A8091000475
:100420008065809300041093150487E08093C108D1
:1004300083E68093C0080E9485008BEE91E0809354
:100440004A0190934B010E948500109247010E943F
:10045000850011E0109342010E9485001093400135
:100460000E9485008BE08093700480916004866018
:1004700080936004809165048660809365042FEF0B
:1004800080E792E0215080409040E1F700C00000FA
:10049000789480915000897F809350008091500023
:1004A00081608093500001E012E4FE013396EE83F8
:1004B000FF83F8948091162890911728029741F0B5
:1004C00078948895809150008E7F80935000F1CF72
:1004D000789409831A83EE81FF8123E011922A9593
:1004E000E9F785E79BE40E949A02BE016F5F7F4FA8
:1004F00081E090E00E948A00BE016F5F7F4F82E042
:1005000090E00E948A00D5CFA0E0B0E0EAE8F2E0F7
:100510000C947305AE014B5F5F4FFA0161917191CD
:10052000AF0180911028909111280E94C602E2E04C
:100530000C948C050F931F93CF93DF93E0911028B9
:10054000F09111282381EC0100E010E021FD0EC0A4
:100550000FEF1FEFC801DF91CF911F910F91089509
:1005600021960995892B11F00FEF1FEF888160917B
:10057000102870911128DB011896ED91FD918111E1
:10058000EFCF8AE00995892B29F3E2CFABE0B0E009
:10059000ECECF2E00C9466056C017B018A01FC0135
:1005A00016821782838181FFDFC13AE0532EF60164
:1005B0002381F70123FD859123FF81917F0181151F
:1005C00009F437C1853239F423FD959123FF9191C8
:1005D0007F01953229F4B60190E00E94CD04E7CF67
:1005E00030E0912C612C712CF0E27F1640F59B32AB
:1005F000D9F058F49032D1F09332F1F09E3291F567
:1006000076FC17C1689476F806C09D3291F090335D
:10061000C1F4689470F8F70123FD959123FF91913F
:100620007F019111E1CF28C0689471F8689472F845
:10063000F2CF689473F8EFCF689474F8ECCF77FC3E
:100640001BC080ED890F8A30C8F676FE05C0959CE8
:10065000800D1124982EDFCF659C800D1124682E0B
:100660007F2AD9CF9C3619F4689477F8D4CF9C347C
:1006700009F445C0983679F2892F8F7D85548330EF
:1006800008F43FC0933609F461C0933709F46BC096
:10069000933509F477C0943619F0993609F0A4C05F
:1006A000F80177FE9AC061917191819191918F01CA
:1006B000272D2F76822E97FF04C00E945B05689439
:1006C00087F82AE030E05E014FEFA41AB40AA501D2
:1006D0000E94FD04782E7A1886FECFC0882D8E7F6A
:1006E000791408F0C9C084FE1DC182FC11C12EEE30
:1006F0008222B92C882D867809F4CBC00EC131E056
:100700008ACF311501F1085F1F4F8FE3898321E004
:10071000822E912C5E012FEFA21AB20AE89477F88C
:1007200073FC03C086149104F0F18114910409F064
:1007300041C0611409F43BCFB60180E290E00E9411
:10074000CD046A94F6CF0C5F1F4FDFCFF801808194
:1007500089830E5F1F4F91E0892E912C5E01FFEF80
:10076000AF1ABF0ADBCFF801A190B1908F01692DBC
:1007700070E076FC02C06FEF7FEFC5010E94C204FB
:100780004C01CCCFF801A190B1908F01692D70E0A0
:1007900076FC02C06FEF7FEFC5010E94B7044C01E9
:1007A000689477F8BDCFB60180E290E00E94CD0456
:1007B0006A94B8CFF50177FC859177FE81915F014E
:1007C000B60190E00E94CD0481E0611001C080E09C
:1007D000681AF1E08F1A9108A8CF61917191872F63
:1007E000880F880B982F63CF9537C9F4872CE8942E
:1007F00084F82AE030E0F80187FE39C061917191F8
:10080000819191918F015E01FFEFAF1ABF0AA5019F
:100810000E94FD04782E7A18E89487F85DCF872D22
:10082000897F882E903799F058F49835A9F09F3633
:10083000D9F0F601868197812B96EFE00C947F0525
:100840009837B9F774FC05C020E130E0D4CF689444
:1008500084F8689482F8F8CF74FE03C0E72DE66050
:100860008E2E20E132E0C7CF28E030E0C4CF619186
:10087000719180E090E0C6CF882EB72C84FE3ACFED
:10088000FE01E70DF11D8081803309F044C049EE7F
:10089000842283FC0EC080FE51C0972CB61418F43D
:1008A000960C9B18B62C862D8B196B1408F480E0DF
:1008B000B80EB61408F044C06B1884FE43C0B601ED
:1008C00080E390E00E94CD0482FE09C088E590E0BC
:1008D00081FC02C088E790E0B6010E94CD04791443
:1008E000E0F15E018FEFA81AB80A7A9482E0882EB0
:1008F000912C8C0E9D1E870C911CF40182914F014E
:10090000B60190E00E94CD048A149B04B1F711CF88
:10091000B92C882EB5CF82FC02C0B394BACFB39461
:10092000B394B7CFB92C882EE5CEB60180E290E023
:100930000E94CD04A394A614C0F3B5CFAB2CFBCF7B
:10094000612CBBCF882D867851F280E281FC8BE24E
:1009500087FC8DE2B60190E0C0CFB60180E390E065
:100960000E94CD049A94BBCF8FEF9FEF65CFFC011F
:100970000590615070400110D8F7809590958E0FCA
:100980009F1F0895FC016150704001900110D8F73D
:10099000809590958E0F9F1F08950F931F93CF936F
:1009A000DF93182F092FEB018B8181FD09C00FEF19
:1009B0001FEF812F902FDF91CF911F910F910895FD
:1009C00082FF14C02E813F818C819D8128173907B9
:1009D0003CF4E881F981CF010196888399831083E3
:1009E0008E819F8101968E839F83E3CFE885F98571
:1009F000812F0995892BA1F3DACFFA01AA27283094
:100A000051F1203181F1E8946F936E7F6E5F7F4FDB
:100A10008F4F9F4FAF4FB1E03ED0B4E03CD0670F57
:100A2000781F891F9A1FA11D680F791F8A1F911DAA
:100A3000A11D6A0F711D811D911DA11D20D009F4FA
:100A400068943F912AE0269F11243019305D31933C
:100A5000DEF6CF010895462F4770405D4193B3E025
:100A60000FD0C9F7F6CF462F4F70405D4A3318F0CC
:100A7000495D31FD4052419302D0A9F7EACFB4E07D
:100A8000A6959795879577956795BA95C9F7009735
:100A90006105710508959B01AC010A2E06945795D6
:100AA000479537952795BA95C9F7620F731F841F2D
:100AB000951FA01D089590958095709561957F4F25
:100AC0008F4F9F4F08952F923F924F925F926F9258
:100AD0007F928F929F92AF92BF92CF92DF92EF92CE
:100AE000FF920F931F93CF93DF93CDB7DEB7CA1B4F
:100AF000DB0BCDBFDEBF09942A88398848885F8424
:100B00006E847D848C849B84AA84B984C884DF80AD
:100B1000EE80FD800C811B81AA81B981CE0FD11D91
:0C0B2000CDBFDEBFED010895F894FFCFBB
:100B2C0025643A204469646E2774206765742061DB
:100B3C0020445352210A0053504920636F6C6C6956
:100B4C0073696F6E210025643A2053656E742025FD
:100B5C007820676F742025780A0053746172746969
:100B6C006E672075702E2E2E0048616E646C6520A9
:050B7C00434D4421007F
:0E0B810000000002000000006F0000000000F5
:00000001FF
