:100000000C9450000C946D000C946D000C948A00BC
:100010000C946D000C946D000C946D000C946D00AC
:100020000C946D000C946D000C946D000C946D009C
:100030000C946D000C946D000C946D000C946D008C
:100040000C946D000C946D000C946D000C946D007C
:100050000C946D000C946D000C946D000C946D006C
:100060000C946D000C946D000C946D000C946D005C
:100070000C946D000C946D000C946D000C946D004C
:100080000C946D000C946D000C946D000C946D003C
:100090000C946D000C946D000C946D000C946D002C
:1000A00011241FBECFEFCDBFDFE3DEBF28E2AEE0FD
:1000B000B8E201C01D92A531B207E1F718E2A0E055
:1000C000B8E2E7EBF9E002C005900D92AE30B1075F
:1000D000D9F70E94A5000C94BB040C940000982F43
:1000E0008A3039F48091440885FFFCCF8DE08093FD
:1000F0004208292F392F330F330B8091440885FF95
:10010000FCCF90934208C9010895809141018F70FE
:10011000E1F708951F921FB61F9211248F9381E07B
:1001200080934301809114288F5F809314288091DD
:10013000380A8B3028F083508093380A1092390A9D
:100140008F911F901FBE1F901895F89480913004D6
:10015000887F8093300480913004846080933004E1
:1001600080913104887F80933104809131048460D0
:100170008093310480913204887F8093320480918F
:10018000320484608093320480913304887F8093AA
:100190003304809133048460809333048091340469
:1001A000887F809334048091340484608093340485
:1001B00080913504887F8093350480913504846074
:1001C0008093350480915604887F809356048091F3
:1001D000560484608093560480915704887F8093EE
:1001E000570480915704846080935704C3E088EDDE
:1001F00084BFC09361008BE890E08093480890939F
:10020000490880E4809346088091A004816080932F
:10021000A00480E098E280931028909311288AE748
:1002200099E40E94C1018091E405887F8093E405F0
:100230008091E40582608093E4058FEF90E08093E5
:10024000260A9093270A80E18093280A9093290A2E
:10025000C093000A83E18093010A80914004816089
:10026000809340048091000480658093000488E0BE
:100270008093150487E08093C10883E68093C008CB
:100280000E9485008BEE91E080934A0190934B0190
:100290000E948500109247010E948500C1E0C09332
:1002A00042010E948500C09340010E94850078941D
:1002B000C0E0D0E004EA19E4F89480E890E080938C
:1002C000380A9093390A7894809114281F928F935A
:1002D000DF93CF9389E899E49F938F930E94AB01BA
:1002E00085E88093C4080F900F900F900F900F90A7
:1002F0000F908091C30886FF1FC085E999E49F9302
:100300008F930E94AB010F900F908FEF1F928F93EE
:100310001F930F930E94AB018FEF94E32CE0815069
:1003200090402040E1F700C00000A89521960F9072
:100330000F900F900F90C0CF87FF03C08091C4082B
:10034000E5CF8FE79AE126E0815090402040E1F729
:1003500000C00000CECFA0E0B0E0E1EBF1E00C94F3
:100360009A04AE014B5F5F4FFA0161917191AF0149
:1003700080911028909111280E94ED01E2E00C94E8
:10038000B3040F931F93CF93DF93E0911028F09164
:1003900011282381EC0100E010E021FD0EC00FEFD9
:1003A0001FEFC801DF91CF911F910F910895219602
:1003B0000995892B11F00FEF1FEF888160911028AC
:1003C00070911128DB011896ED91FD918111EFCF0D
:1003D0008AE00995892B29F3E2CFABE0B0E0E3EFA7
:1003E000F1E00C948D046C017B018A01FC01168202
:1003F0001782838181FFDFC13AE0532EF60123810A
:10040000F70123FD859123FF81917F01811509F477
:1004100037C1853239F423FD959123FF91917F01F6
:10042000953229F4B60190E00E94F403E7CF30E062
:10043000912C612C712CF0E27F1640F59B32D9F0A3
:1004400058F49032D1F09332F1F09E3291F576FC6F
:1004500017C1689476F806C09D3291F09033C1F4CC
:10046000689470F8F70123FD959123FF91917F0126
:100470009111E1CF28C0689471F8689472F8F2CFB6
:10048000689473F8EFCF689474F8ECCF77FC1BC0D6
:1004900080ED890F8A30C8F676FE05C0959C800DE8
:1004A0001124982EDFCF659C800D1124682E7F2AA1
:1004B000D9CF9C3619F4689477F8D4CF9C3409F4DA
:1004C00045C0983679F2892F8F7D8554833008F4A2
:1004D0003FC0933609F461C0933709F46BC093357C
:1004E00009F477C0943619F0993609F0A4C0F801E0
:1004F00077FE9AC061917191819191918F01272D21
:100500002F76822E97FF04C00E948204689487F899
:100510002AE030E05E014FEFA41AB40AA5010E9460
:100520002404782E7A1886FECFC0882D8E7F791409
:1005300008F0C9C084FE1DC182FC11C12EEE8222CA
:10054000B92C882D867809F4CBC00EC131E08ACF52
:10055000311501F1085F1F4F8FE3898321E0822E5F
:10056000912C5E012FEFA21AB20AE89477F873FC7F
:1005700003C086149104F0F18114910409F041C084
:10058000611409F43BCFB60180E290E00E94F403CD
:100590006A94F6CF0C5F1F4FDFCFF801808189830B
:1005A0000E5F1F4F91E0892E912C5E01FFEFAF1A75
:1005B000BF0ADBCFF801A190B1908F01692D70E0E7
:1005C00076FC02C06FEF7FEFC5010E94E9034C018A
:1005D000CCCFF801A190B1908F01692D70E076FC2D
:1005E00002C06FEF7FEFC5010E94DE034C016894EB
:1005F00077F8BDCFB60180E290E00E94F4036A94E0
:10060000B8CFF50177FC859177FE81915F01B60146
:1006100090E00E94F40381E0611001C080E0681A5C
:10062000F1E08F1A9108A8CF61917191872F880FFF
:10063000880B982F63CF9537C9F4872CE89484F8FA
:100640002AE030E0F80187FE39C061917191819113
:1006500091918F015E01FFEFAF1ABF0AA5010E94C1
:100660002404782E7A18E89487F85DCF872D897F47
:10067000882E903799F058F49835A9F09F36D9F024
:10068000F601868197812B96EFE00C94A6049837AB
:10069000B9F774FC05C020E130E0D4CF689484F849
:1006A000689482F8F8CF74FE03C0E72DE6608E2EC2
:1006B00020E132E0C7CF28E030E0C4CF61917191F2
:1006C00080E090E0C6CF882EB72C84FE3ACFFE01A2
:1006D000E70DF11D8081803309F044C049EE84228A
:1006E00083FC0EC080FE51C0972CB61418F4960CF3
:1006F0009B18B62C862D8B196B1408F480E0B80E6D
:10070000B61408F044C06B1884FE43C0B60180E301
:1007100090E00E94F40382FE09C088E590E081FC2D
:1007200002C088E790E0B6010E94F4037914E0F17A
:100730005E018FEFA81AB80A7A9482E0882E912C75
:100740008C0E9D1E870C911CF40182914F01B60105
:1007500090E00E94F4038A149B04B1F711CFB92CE6
:10076000882EB5CF82FC02C0B394BACFB394B394B1
:10077000B7CFB92C882EE5CEB60180E290E00E947A
:10078000F403A394A614C0F3B5CFAB2CFBCF612C1C
:10079000BBCF882D867851F280E281FC8BE287FC0A
:1007A0008DE2B60190E0C0CFB60180E390E00E94F8
:1007B000F4039A94BBCF8FEF9FEF65CFFC010590B8
:1007C000615070400110D8F7809590958E0F9F1F53
:1007D0000895FC016150704001900110D8F7809598
:1007E00090958E0F9F1F08950F931F93CF93DF93C4
:1007F000182F092FEB018B8181FD09C00FEF1FEF2F
:10080000812F902FDF91CF911F910F91089582FF3B
:1008100014C02E813F818C819D81281739073CF4BB
:10082000E881F981CF0101968883998310838E81B5
:100830009F8101968E839F83E3CFE885F985812F81
:100840000995892BA1F3DACFFA01AA27283051F1B3
:10085000203181F1E8946F936E7F6E5F7F4F8F4FF1
:100860009F4FAF4FB1E03ED0B4E03CD0670F781F50
:10087000891F9A1FA11D680F791F8A1F911DA11D35
:100880006A0F711D811D911DA11D20D009F468946E
:100890003F912AE0269F11243019305D3193DEF616
:1008A000CF010895462F4770405D4193B3E00FD0CC
:1008B000C9F7F6CF462F4F70405D4A3318F0495DB7
:1008C00031FD4052419302D0A9F7EACFB4E0A6959A
:1008D0009795879577956795BA95C9F700976105BC
:1008E000710508959B01AC010A2E06945795479512
:1008F00037952795BA95C9F7620F731F841F951F07
:10090000A01D089590958095709561957F4F8F4FAC
:100910009F4F08952F923F924F925F926F927F92D6
:100920008F929F92AF92BF92CF92DF92EF92FF92FF
:100930000F931F93CF93DF93CDB7DEB7CA1BDB0BAB
:10094000CDBFDEBF09942A88398848885F846E84C9
:100950007D848C849B84AA84B984C884DF80EE80E3
:10096000FD800C811B81AA81B981CE0FD11DCDBF25
:0A097000DEBFED010895F894FFCFFB
:10097A005374617274696E672075702E2E2E006C26
:10098A006F6F702025752025750A00535049206322
:10099A006F6C6C6973696F6E210073656E64206495
:0D09AA006F6E652C20676F742025780A00A1
:0E09B70000000002000000006F0000000000C1
:00000001FF
