:100000000C9450000C946D000C946D000C946D00D9
:100010000C946D000C946D000C946D000C946D00AC
:100020000C946D000C946D000C946D000C946D009C
:100030000C946D000C946D000C946D000C946D008C
:100040000C946D000C946D000C946D000C946D007C
:100050000C946D000C946D000C946D000C946D006C
:100060000C946D000C946D000C946D000C946D005C
:100070000C946D000C946D000C946D000C946D004C
:100080000C946D000C946D000C946D000C946D003C
:100090000C946D000C946D000C946D000C946D002C
:1000A00011241FBECFEFCDBFDFE3DEBF28E2AEE0FD
:1000B000B8E201C01D92A431B207E1F718E2A0E056
:1000C000B8E2EEE6F9E002C005900D92AE30B1075D
:1000D000D9F70E9484000C9429040C9400008A3003
:1000E00039F49091440895FFFCCF9DE0909342082D
:1000F000282F082E000C330B9091440895FFFCCF5D
:1001000080934208C9010895F89480913004887F53
:100110008093300480913004846080933004809117
:100120003104887F8093310480913104846080930E
:10013000310480913204887F8093320480913204AC
:1001400084608093320480913304887F80933304E9
:100150008091330484608093330480913404887FD9
:1001600080933404809134048460809334048091BB
:100170003504887F809335048091350484608093B2
:10018000350480915604887F8093560480915604EC
:1001900084608093560480915704887F809357042D
:1001A0008091570484608093570488ED91E084BF68
:1001B0009093610086E191E080934808909349080C
:1001C00080E4809346088091A00481608093A0041D
:1001D00080E098E2809310289093112886E598E4B7
:1001E0000E944F018091E405887F8093E40580910F
:1001F000E40582608093E4058FEF91E08093260A06
:100200009093270A80E190E08093280A9093290A2E
:1002100087E08093000A83E18093010A8091400483
:10022000816080934004D0E0C0E005E618E4DF93ED
:10023000CF931F930F930E943901EEE6F8E40F90DD
:100240000F900F900F90819190E08093280A9093E7
:10025000290A9FE32EEC80E0915020408040E1F796
:1002600000C00000A89599E4EE36F90761F72196E1
:10027000DECFB0E0A0E0EFE3F1E00C940804AE01C3
:100280004B5F5F4FFA0161917191AF01809110282E
:10029000909111280E947A01E2E00C9421040F93BE
:1002A0001F93CF93DF93E0911028F09111282381C1
:1002B000EC0110E000E021FD08C00FEF1FEF14C0BB
:1002C0000995892B11F00FEF1FEF8991609110288C
:1002D00070911128DB011896ED91FC918111F0CFFE
:1002E0008AE00995892B49F7C801DF91CF911F91C9
:1002F0000F910895ABE0B0E0E0E8F1E00C94F80372
:100300007C013B018A01FC0116821782838181FFF7
:10031000C8C1CE0101965C01F7019381F30193FD01
:10032000859193FF81913F01882309F453C1853260
:1003300039F493FD859193FF81913F01853229F432
:10034000B70190E00E946A03E7CF912C212C312C59
:10035000FFE1F31538F08B3211F190F4803209F19E
:10036000833229F137FC3CC020ED280F2A3050F5AC
:1003700036FE20C08AE0989E200D1124922E06C0E1
:100380008D3291F0803371F7689430F8F30193FD6A
:10039000859193FF81913F018111DACF21C068944B
:1003A00031F8689432F8F2CF689433F8EFCF68945C
:1003B00034F8ECCFEAE02E9E200D1124222E689412
:1003C00035F8E4CF8E3229F436FC04C1689436F84F
:1003D000DDCF8C3619F4689437F8D8CF8836B1F26F
:1003E000982F9F7D95549330E0F08336A1F18337A9
:1003F000C1F1833509F063C02801F2E04F0E511CB2
:10040000F801C080D180692D70E036FC02C06FEF2A
:100410007FEFC6010E9454034C01689437F88201B3
:100420000AC00C5F1F4FFFE3F98388248394912C4B
:100430006501E89437F833FE2DC0522C81149104E5
:1004400071F5552009F468CFB70180E290E00E9471
:100450006A035A94F6CFF801808189830E5F1F4F9B
:10046000E4CF2801F2E04F0E511CF801C080D1808A
:10047000692D70E036FC02C06FEF7FEFC6010E946D
:100480005F034C018201D5CFB70180E290E00E946A
:100490006A032A942814190409F0B0F7CECFF601A4
:1004A00037FC859137FE81916F01B70190E00E9482
:1004B0006A0351105A94F1E08F1A9108BFCF843625
:1004C00019F0893609F077C0F80137FE6BC06081FA
:1004D0007181828193810C5F1F4FF32DFF763F2E38
:1004E00097FF09C090958095709561957F4F8F4FCC
:1004F0009F4F689437F82AE030E0A5010E949A03E4
:10050000C82ECA188C2C432C36FE0CC0E89440F838
:10051000C91440F434FE05C032FC03C0F32DFE7E46
:100520004F2E892C44FE95C0FE01EC0DF11D8081FB
:10053000803309F087C0242D297E422E842D8870B7
:10054000582E43FC95C040FE8FC09C2C821418F49A
:100550002C0C922C981844FE91C0B70180E390E0D7
:100560000E946A0342FE09C088E790E041FE02C093
:1005700088E590E0B7010E946A03C91408F48AC0B4
:10058000CA94D12C9FEFC91AD90ACA0CDB1CF601F8
:1005900082916F01B70190E00E946A03AC14BD0420
:1005A000B1F74FCF60817181072E000C880B990B3A
:1005B0000E5F1F4F92CFD32CE894D4F82AE030E09E
:1005C000853739F1232D297FD22E8F3601F148F45A
:1005D0008835A9F0F701868197812B96E2E10C948A
:1005E0001104803749F08837A9F7D4FE02C0689417
:1005F000D2F820E130E00DC06894D4F8F6CF34FE94
:1006000003C0822F8660D82E20E132E002C028E0AD
:1006100030E0F801D7FE0FC0608171818281938143
:100620000C5F1F4FA5010E949A03C82ECA183D2CCB
:10063000E89437F867CF6081718190E080E00E5FC9
:100640001F4FF0CF42FC02C0839478CF83948394F1
:1006500075CF842D867809F471CFF6CFB70180E28B
:1006600090E00E946A0383948214C0F3512C73CFEC
:10067000522C5818821408F46ECFF8CF842D867847
:1006800009F47BCF8BE241FE80E247FC8DE2B701AB
:1006900090E071CFB70180E390E00E946A039A94E2
:1006A0006CCF8FEF9FEF99CFFC01059061507040A8
:1006B0000110D8F7809590958E0F9F1F0895FC012B
:1006C0006150704001900110D8F7809590958E0F81
:1006D0009F1F08950F931F93CF93DF93182F092F18
:1006E000EB018B8181FD09C01FEF0FEF812F902F50
:1006F000DF91CF911F910F91089582FF14C02E8139
:100700003F818C819D81281739073CF4E881F9816C
:10071000CF0101968883998310838E819F810196F2
:100720008E839F83E3CFE885F985812F0995892BF7
:10073000A1F3DACFFA01AA27283051F1203181F153
:10074000E8946F936E7F6E5F7F4F8F4F9F4FAF4FD9
:10075000B1E03ED0B4E03CD0670F781F891F9A1FEC
:10076000A11D680F791F8A1F911DA11D6A0F711DA0
:10077000811D911DA11D20D009F468943F912AE0AC
:10078000269F11243019305D3193DEF6CF01089594
:10079000462F4770405D4193B3E00FD0C9F7F6CFC5
:1007A000462F4F70405D4A3318F0495D31FD40528D
:1007B000419302D0A9F7EACFB4E0A6959795879523
:1007C00077956795BA95C9F7009761057105089502
:1007D0009B01AC010A2E06945795479537952795AE
:1007E000BA95C9F7620F731F841F951FA01D089546
:1007F0002F923F924F925F926F927F928F929F9231
:10080000AF92BF92CF92DF92EF92FF920F931F931E
:10081000CF93DF93CDB7DEB7CA1BDB0BCDBFDEBFF7
:1008200009942A88398848885F846E847D848C8402
:100830009B84AA84B984C884DF80EE80FD800C810B
:100840001B81AA81B981CE0FD11DCDBFDEBFED01C5
:060850000895F894FFCFAB
:100856005374617274696E672075702E2E2E006C4B
:100866006F6F702025750A00080808090909090A2A
:100876000A0A0B0B0B0C0C0C0D0D0D0E0E0E0F0FAA
:100886001010111111121313141415151617171829
:1008960018191A1B1B1C1D1E1F1F2021222324256D
:1008A6002627282A2B2C2D2F303133343637393A48
:1008B6003C3E3F41434547494B4D4F515456595B8A
:1008C6005E606364646464646464646464646464ED
:1008D600646463615F5D5B5957555452504E4D4B8E
:1008E6004A484745444241403E3D3C3A393837360E
:1008F60035343231302F2E2D2D2C2B2A2928272620
:100906002625242323222121201F1F1E1D1D1C1BDB
:100916001B1A1A1919181817171616151514141460
:1009260013131212121111111010100F0F0F0E0EB9
:100936000E0D0D0D0D0C0C0C0C0B0B0B0B0A0A0AF5
:100946000A0A09090909090808080808080707071B
:100956000707070706060606060606060505050531
:08096600050505050505040463
:0E096E0000000002000000006F00000000000A
:00000001FF
