:100000000C9450000C946D000C946D000C94E8015D
:100010000C946D000C946D000C946D000C946D00AC
:100020000C946D000C946D000C946D000C946D009C
:100030000C946D000C946D000C946D000C946D008C
:100040000C946D000C946D000C946D000C946D007C
:100050000C9403020C946D000C946D000C946D00D4
:100060000C946D000C946D000C946D000C946D005C
:100070000C946D000C946D000C946D000C94270191
:100080000C94F9000C946D000C946D000C946D00B0
:100090000C946D000C946D000C946D000C946D002C
:1000A00011241FBECFEFCDBFDFE3DEBF29E2AEE0FC
:1000B000B8E201C01D92AD35B207E1F718E2A0E049
:1000C000B8E2E7E0FEE002C005900D92AE30B10765
:1000D000D9F70E941D020C94D1060C9400000FB6B3
:1000E00007FE0EC0F89420915C2990915B2929139A
:1000F00023C03091440835FF1FC080934208789494
:10010000089578948895F89420915C2990915B29C2
:10011000392F34273217A9F3E92FEF73F0E0E55EAA
:10012000F64D80839F5F9F7790935B298091450870
:10013000806280934508E3CF40E4EACFCF93DF931A
:10014000C82F8A3021F48DE090E00E946F00DC2FF0
:10015000DD0FDD0BCE010E946F00CE01DF91CF914C
:100160000895CF92DF92FF920F931F93CF93DF9367
:10017000C82FD42F86EA90E08B010E946F008C2F4D
:1001800090E00E946F006801CD0ED11C0C151D057A
:10019000A9F487EA90E00E946F00DF5F8D2F90E066
:1001A0000E946F00C0958C2F90E0DF91CF911F913E
:1001B0000F91FF90DF90CF900C946F00F801F190B9
:1001C0008F01CF0D8F2D90E00E946F00F7EAFF1294
:1001D000DDCF87EA90E00E946F00D8CF40E060E07A
:1001E00070E081E20C94B100809141018F70E1F7E1
:1001F00008952F932FB72F938F939F93EF93FF9390
:10020000E0915C2990915B29E9130DC0809145082C
:100210008F7D80934508FF91EF919F918F912F9152
:100220002FBF2F9118958091440885FFF4CF81E06E
:100230008E0FEF73F0E0E55EF64D208120934208CB
:10024000282F2F7720935C299813E5CFDFCF1F92BB
:100250000F920FB60F9211242F933F934F935F93FA
:100260006F937F938F939F93AF93BF93EF93FF937E
:10027000809140082091192930911A2922303105A6
:1002800009F446C088F4232B71F5853AA9F410923D
:1002900018291092172981E090E020E230E02093A5
:1002A000380A3093390A0AC02330310509F463C093
:1002B0002430310509F47DC080E090E08093192955
:1002C00090931A29FF91EF91BF91AF919F918F91D8
:1002D0007F916F915F914F913F912F910F900FBE42
:1002E0000F901F901895873A09F46FC0E091182974
:1002F00021E02E0F20931829F0E0E95EF74D80836E
:1003000090911729890F809317292115A9F2C3CF3E
:10031000E0911829873A79F491E09E0F909318297B
:10032000F0E0E95EF74D808380911729895580932D
:1003300017299115EBCF982F92959F709B30A9F4B8
:100340008F7093E09E0F890FAE2F8A1304C08E1713
:1003500008F4B2CFA0CF91E09A0F90931829B0E0A3
:10036000A95EB74D1C92A92FF0CFEF778E13A4CFC3
:1003700083E090E092CF90911729292F20952813A0
:1003800007C0809118298093162884E090E096CFCA
:100390001F928F931F929F9386EA9DE49F938F9362
:1003A0000E94C1030F900F900F900F900F900F902D
:1003B00083CF81E090E020911829211101C080E0D5
:1003C000880F991F880F991F79CF82E090E065CF41
:1003D0001F921FB61F9211248F9381E080934301D7
:1003E000809115288F5F809315288091380A8B3073
:1003F00028F082508093380A1092390A8F911F900A
:100400001FBE1F9018951F921FB61F9211248F9325
:10041000809169048093690480FF0AC08FEF809304
:10042000380A1092390A809114288F5F809314281B
:100430008F911F901FBE1F90189500D00F92CDB7BF
:10044000DEB7F89480913004887F809330048091E7
:10045000300484608093300480913104887F8093DD
:10046000310480913104846080933104809132049E
:10047000887F8093320480913204846080933204B8
:1004800080913304887F80933304809133048460A7
:100490008093330480913404887F80933404809166
:1004A000340484608093340480913504887F809381
:1004B000350480913504846080933504809156041E
:1004C000887F8093560480915604846080935604FC
:1004D00080915704887F80935704809157048460EB
:1004E0008093570413E088ED84BF1093610098E077
:1004F0009093B1048091A00481608093A0042BE8C4
:1005000030E0209348083093490880E880934508FC
:1005100080EC8093460820E038E220931028309346
:100520001128809140048160809340048091E4050B
:10053000887F8093E4058091E40582608093E405E0
:100540002FEF30E02093260A3093270A20E12093F2
:10055000280A3093290A83E18093010A1093000A44
:10056000809100048065809300049093150487E0D7
:100570008093C10883E68093C0080E94F40088E459
:1005800091E080934A0190934B010E94F4001092F5
:1005900047010E94F40001E0009342010E94F40030
:1005A000009340010E94F400109370048091600455
:1005B0008660809360048091650486608093650402
:1005C00080915000897F809350008091500081601D
:1005D000809350002FEF80E792E0215080409040C0
:1005E000E1F700C00000789488EC9DE40E94D703F6
:1005F000F8948091192990911A29049719F0789408
:100600008895F6CF7894F09017282FE3F216A1F092
:1006100088E5F81609F1809117281F928F9383EFD0
:100620009DE49F938F930E94C1030E94EE000F9060
:100630000F900F900F900BC081E089831A821B826C
:1006400043E0BE016F5F7F4F8FE30E94B1001092C5
:10065000192910921A29CCCF80911628823010F4D3
:100660000E94EE00109118288FEF810F823070F0F9
:100670001F921F9387ED9DE49F938F930E94C10368
:100680000E94EE000F900F900F900F90D0901628C0
:10069000DA94DA94C090142886EA90E00E946F0001
:1006A00088E590E00E946F001130D1F582E08093E0
:1006B000660428E22A95F1F700E010E00D15110517
:1006C000B0F4F801E75EF74D90810115110561F175
:1006D000809115288B5F20911528821721F0209199
:1006E00014282C15C1F380911428C8121DC08091C4
:1006F000650486608093650487EA90E00E946F003D
:10070000C80183958F7790E00E946F008F2D8095B0
:1007100090E00E946F008AE18A95F1F700C097CFC0
:1007200094E090936604C5CF8091680480FFFCCF6D
:1007300025E02A95F1F70000C09014289093C40892
:100740008091C30886FF18C084EE9DE49F938F9329
:100750000E94C1030F900F90EE24EA94FE0C8E2DA0
:1007600090E00E946F0087EAE81203C090E00E94C8
:100770006F000F5F1F4FA2CF87FFE2CFE090C4084A
:10078000EDCFA0E0B0E0E7ECF3E00C94B006AE01F2
:100790004B5F5F4FFA0161917191AF018091102819
:1007A000909111280E940304E2E00C94C9060F9373
:1007B0001F93CF93DF93E0911028F09111282381AC
:1007C000EC0100E010E021FD0EC00FEF1FEFC801AB
:1007D000DF91CF911F910F91089521960995892B53
:1007E00011F00FEF1FEF8881609110287091112890
:1007F000DB011896ED91FD918111EFCF8AE009950B
:10080000892B29F3E2CFABE0B0E0E9E0F4E00C940F
:10081000A3066C017B018A01FC0116821782838189
:1008200081FFDFC13AE0532EF6012381F70123FD5A
:10083000859123FF81917F01811509F437C18532AC
:1008400039F423FD959123FF91917F01953229F48D
:10085000B60190E00E940A06E7CF30E0912C612CAF
:10086000712CF0E27F1640F59B32D9F058F49032AB
:10087000D1F09332F1F09E3291F576FC17C1689475
:1008800076F806C09D3291F09033C1F4689470F808
:10089000F70123FD959123FF91917F019111E1CF04
:1008A00028C0689471F8689472F8F2CF689473F86D
:1008B000EFCF689474F8ECCF77FC1BC080ED890F04
:1008C0008A30C8F676FE05C0959C800D1124982EBE
:1008D000DFCF659C800D1124682E7F2AD9CF9C36EE
:1008E00019F4689477F8D4CF9C3409F445C098364D
:1008F00079F2892F8F7D8554833008F43FC0933679
:1009000009F461C0933709F46BC0933509F477C0DB
:10091000943619F0993609F0A4C0F80177FE9AC010
:1009200061917191819191918F01272D2F76822E66
:1009300097FF04C00E949806689487F82AE030E088
:100940005E014FEFA41AB40AA5010E943A06782E60
:100950007A1886FECFC0882D8E7F791408F0C9C022
:1009600084FE1DC182FC11C12EEE8222B92C882D7D
:10097000867809F4CBC00EC131E08ACF311501F180
:10098000085F1F4F8FE3898321E0822E912C5E0147
:100990002FEFA21AB20AE89477F873FC03C086140A
:1009A0009104F0F18114910409F041C0611409F43B
:1009B0003BCFB60180E290E00E940A066A94F6CF2F
:1009C0000C5F1F4FDFCFF801808189830E5F1F4FBF
:1009D00091E0892E912C5E01FFEFAF1ABF0ADBCFA9
:1009E000F801A190B1908F01692D70E076FC02C0F2
:1009F0006FEF7FEFC5010E94FF054C01CCCFF801DE
:100A0000A190B1908F01692D70E076FC02C06FEF6C
:100A10007FEFC5010E94F4054C01689477F8BDCFC3
:100A2000B60180E290E00E940A066A94B8CFF50110
:100A300077FC859177FE81915F01B60190E00E947D
:100A40000A0681E0611001C080E0681AF1E08F1AA7
:100A50009108A8CF61917191872F880F880B982FEB
:100A600063CF9537C9F4872CE89484F82AE030E006
:100A7000F80187FE39C061917191819191918F0147
:100A80005E01FFEFAF1ABF0AA5010E943A06782E59
:100A90007A18E89487F85DCF872D897F882E903764
:100AA00099F058F49835A9F09F36D9F0F60186816F
:100AB00097812B96EFE00C94BC069837B9F774FC3D
:100AC00005C020E130E0D4CF689484F8689482F8BF
:100AD000F8CF74FE03C0E72DE6608E2E20E132E0F1
:100AE000C7CF28E030E0C4CF6191719180E090E001
:100AF000C6CF882EB72C84FE3ACFFE01E70DF11D3C
:100B00008081803309F044C049EE842283FC0EC00A
:100B100080FE51C0972CB61418F4960C9B18B62C76
:100B2000862D8B196B1408F480E0B80EB61408F00B
:100B300044C06B1884FE43C0B60180E390E00E947D
:100B40000A0682FE09C088E590E081FC02C088E7C1
:100B500090E0B6010E940A067914E0F15E018FEF81
:100B6000A81AB80A7A9482E0882E912C8C0E9D1EC9
:100B7000870C911CF40182914F01B60190E00E9414
:100B80000A068A149B04B1F711CFB92C882EB5CF71
:100B900082FC02C0B394BACFB394B394B7CFB92C4C
:100BA000882EE5CEB60180E290E00E940A06A3946A
:100BB000A614C0F3B5CFAB2CFBCF612CBBCF882DD7
:100BC000867851F280E281FC8BE287FC8DE2B601EF
:100BD00090E0C0CFB60180E390E00E940A069A94AC
:100BE000BBCF8FEF9FEF65CFFC0105906150704048
:100BF0000110D8F7809590958E0F9F1F0895FC01E6
:100C00006150704001900110D8F7809590958E0F3B
:100C10009F1F08950F931F93CF93DF93182F092FD2
:100C2000EB018B8181FD09C00FEF1FEF812F902F0A
:100C3000DF91CF911F910F91089582FF14C02E81F3
:100C40003F818C819D81281739073CF4E881F98127
:100C5000CF0101968883998310838E819F810196AD
:100C60008E839F83E3CFE885F985812F0995892BB2
:100C7000A1F3DACFFA01AA27283051F1203181F10E
:100C8000E8946F936E7F6E5F7F4F8F4F9F4FAF4F94
:100C9000B1E03ED0B4E03CD0670F781F891F9A1FA7
:100CA000A11D680F791F8A1F911DA11D6A0F711D5B
:100CB000811D911DA11D20D009F468943F912AE067
:100CC000269F11243019305D3193DEF6CF0108954F
:100CD000462F4770405D4193B3E00FD0C9F7F6CF80
:100CE000462F4F70405D4A3318F0495D31FD405248
:100CF000419302D0A9F7EACFB4E0A69597958795DE
:100D000077956795BA95C9F70097610571050895BC
:100D10009B01AC010A2E0694579547953795279568
:100D2000BA95C9F7620F731F841F951FA01D089500
:100D300090958095709561957F4F8F4F9F4F089547
:100D40002F923F924F925F926F927F928F929F92DB
:100D5000AF92BF92CF92DF92EF92FF920F931F93C9
:100D6000CF93DF93CDB7DEB7CA1BDB0BCDBFDEBFA2
:100D700009942A88398848885F846E847D848C84AD
:100D80009B84AA84B984C884DF80EE80FD800C81B6
:100D90001B81AA81B981CE0FD11DCDBFDEBFED0170
:060DA0000895F894FFCF56
:100DA600496E76616C6964204353554D2120657800
:100DB60070656374656420257820676F74202578D4
:100DC6000A005374617274696E672075702E2E2E38
:100DD6000042616420736C6F742025640A005350CE
:100DE6004920636F6C6C6973696F6E2100556E6B79
:100DF6006E6F776E20636F6D6D616E642025780A65
:010E060000EB
:0E0E070000000002000000009E00000000003D
:00000001FF
