:100000000C9450000C946D000C946D000C94CB017A
:100010000C946D000C946D000C946D000C946D00AC
:100020000C946D000C946D000C946D000C946D009C
:100030000C946D000C946D000C946D000C946D008C
:100040000C946D000C946D000C946D000C946D007C
:100050000C94E6010C946D000C946D000C946D00F2
:100060000C946D000C946D000C946D000C946D005C
:100070000C946D000C946D000C946D000C942B018D
:100080000C94FA000C946D000C946D000C946D00AF
:100090000C946D000C946D000C946D000C946D002C
:1000A00011241FBECFEFCDBFDFE3DEBF2AE2AEE0FB
:1000B000B8E201C01D92AC39B207E1F718E2A0E046
:1000C000B8E2E7EAFDE002C005900D92AE30B1075C
:1000D000D9F70E9400020C94A1060C9400000FB600
:1000E00007FE0EC0F89490919B2AE0919A2A9E13E5
:1000F0000FC02091440825FF0BC0809342087894DC
:10010000089578948895F89490919B2AE0919A2A82
:1001100020E82E0F2917A9F391E09E0FEF77F0E06A
:10012000E65EF54D808390939A2A8091450880621F
:1001300080934508E4CFCF93DF93C82F8A3021F412
:100140008DE090E00E946F00DC2FDD0FDD0BCE0113
:100150000E946F00CE01DF91CF910895CF92DF9280
:10016000EF92FF920F931F93CF93DF93C82FE42E4C
:1001700086EA90E08B010E946F008C2F90E00E9435
:100180006F00CE2CD12CE00EF12EF11C0E151F05A8
:10019000B9F487EA90E00E946F00C60183958F77DB
:1001A00090E00E946F00C0958C2F90E0DF91CF917E
:1001B0001F910F91FF90EF90DF90CF900C946F0004
:1001C000F801D1918F01CD0F8D2F90E00E946F002B
:1001D000D73AE1F687EA90E00E946F00D7CF40E07F
:1001E00060E070E081E20C94AE00809141018F707C
:1001F000E1F708952F932FB72F938F939F93EF934A
:10020000FF93E0919B2A90919A2A80914704826003
:1002100080934704E9130DC0809145088F7D80933A
:100220004508FF91EF919F918F912F912FBF2F91B3
:1002300018958091440885FFF4CF81E08E0FEF7709
:10024000F0E0E65EF54D20812093420880939B2AE2
:100250009813E7CFE1CF1F920F920FB60F921124A0
:100260002F933F934F935F936F937F938F939F93BE
:10027000AF93BF93EF93FF93809140082091182A8A
:100280003091192A2230310509F444C088F4232B17
:1002900071F5853AA9F41092172A1092162A81E076
:1002A00090E020E230E02093380A3093390A0AC007
:1002B0002330310509F446C02430310509F459C012
:1002C00080E090E08093182A9093192AFF91EF9193
:1002D000BF91AF919F918F917F916F915F914F915E
:1002E0003F912F910F900FBE0F901F901895873A56
:1002F00009F44BC0E091172A91E09E0F9093172AC2
:10030000F0E0EA5EF64D80839091162A890F809383
:10031000162AC5CF873A71F4E091172A91E09E0F13
:100320009093172AF0E0EA5EF64D80838091162ABA
:100330008955EDCF9091172A9F778913C1CF83E01C
:1003400090E0AFCF9091162A292F2095281701F120
:100350001F928F931F929F9386E49DE49F938F93A8
:100360000E9491030F900F900F900F900F900F909D
:10037000A7CF2091172A81E090E0211101C080E0F1
:10038000880F991F880F991F9DCF82E090E089CF39
:1003900084E090E097CF1F921FB61F9211248F9395
:1003A00081E080934301809115298F5F8093152907
:1003B0008091380A8B3028F082508093380A10924E
:1003C000390A8F911F901FBE1F9018951F921FB65C
:1003D0001F9211248F93809169048093690480FF98
:1003E0000AC08FEF8093380A1092390A809114293D
:1003F0008F5F809314298F911F901FBE1F901895B7
:1004000000D000D00F92CDB7DEB7F89480913004C1
:10041000887F80933004809130048460809330041E
:1004200080913104887F809331048091310484600D
:100430008093310480913204887F809332048091CC
:10044000320484608093320480913304887F8093E7
:1004500033048091330484608093330480913404A6
:10046000887F8093340480913404846080933404C2
:1004700080913504887F80933504809135048460B1
:100480008093350480915604887F80935604809130
:10049000560484608093560480915704887F80932B
:1004A00057048091570484608093570413E088EDCB
:1004B00084BF1093610098E09093B1048091A004F0
:1004C00081608093A0042BE830E0209348083093AB
:1004D000490880E88093450880EC8093460820E036
:1004E00038E22093102830931128809140048160D5
:1004F0008093400480914004826080934004809106
:10050000E405887F8093E4058091E4058260809310
:10051000E4052FEF30E02093260A3093270A20E1EC
:100520002093280A3093290A83E18093010A1093CB
:10053000000A809100048065809300049093150464
:1005400087E08093C10883E68093C0080E94F5008D
:1005500088E491E080934A0190934B010E94F5005A
:10056000109247010E94F50001E0009342010E94B1
:10057000F500009340010E94F500109370048091F3
:100580006004866080936004809165048660809337
:10059000650480915000897F8093500080915000C5
:1005A0008160809350002FEF80E792E021508040DF
:1005B0009040E1F700C00000789488E69DE40E9436
:1005C000A703F8948091182A9091192A049719F09A
:1005D00078948895F6CF7894809116298F3399F086
:1005E000883501F1809116291F928F9383E99DE44C
:1005F0009F938F930E9491030E94EF000F900F90A2
:100600000F900F900AC0E1E0E9831A821B8243E059
:10061000BE016F5F7F4F0E94AE001092182A1092A9
:10062000192ACFCF8091172A823010F40E94EF0050
:10063000109117298FEF810F823070F01F921F9356
:1006400087E79DE49F938F930E9491030E94EF00A0
:100650000F900F900F900F90F090172AFA94FA9441
:10066000E0901429113099F5F2E0F093660488E2E5
:100670008A95F1F7E4E1F8E2EC83FD8300E010E015
:100680000F151105B0F4F801E85EF64D90810115E3
:10069000110509F1809115298B5F20911529821789
:1006A00021F0209114292E15C1F380911429E8120C
:1006B00012C080916504866080936504FAE1FA9522
:1006C000F1F700C0402F64E178E288E5A4CF24E090
:1006D00020936604CCCF8091680480FFFCCF25E096
:1006E0002A95F1F70000E09014299093C4088091B6
:1006F000C30886FF11C084E89DE49F938F930E94F6
:1007000091030F900F908FEFEC81FD818193EC832B
:10071000FD830F5F1F4FB4CF87FFE9CF8091C408DF
:10072000F3CFA0E0B0E0E7E9F3E00C948006AE017F
:100730004B5F5F4FFA0161917191AF018091102879
:10074000909111280E94D303E2E00C9499060F9334
:100750001F93CF93DF93E0911028F091112823810C
:10076000EC0100E010E021FD0EC00FEF1FEFC8010B
:10077000DF91CF911F910F91089521960995892BB3
:1007800011F00FEF1FEF88816091102870911128F0
:10079000DB011896ED91FD918111EFCF8AE009956B
:1007A000892B29F3E2CFABE0B0E0E9EDF3E00C9464
:1007B00073066C017B018A01FC011682178283811A
:1007C00081FFDFC13AE0532EF6012381F70123FDBB
:1007D000859123FF81917F01811509F437C185320D
:1007E00039F423FD959123FF91917F01953229F4EE
:1007F000B60190E00E94DA05E7CF30E0912C612C41
:10080000712CF0E27F1640F59B32D9F058F490320B
:10081000D1F09332F1F09E3291F576FC17C16894D5
:1008200076F806C09D3291F09033C1F4689470F868
:10083000F70123FD959123FF91917F019111E1CF64
:1008400028C0689471F8689472F8F2CF689473F8CD
:10085000EFCF689474F8ECCF77FC1BC080ED890F64
:100860008A30C8F676FE05C0959C800D1124982E1E
:10087000DFCF659C800D1124682E7F2AD9CF9C364E
:1008800019F4689477F8D4CF9C3409F445C09836AD
:1008900079F2892F8F7D8554833008F43FC09336D9
:1008A00009F461C0933709F46BC0933509F477C03C
:1008B000943619F0993609F0A4C0F80177FE9AC071
:1008C00061917191819191918F01272D2F76822EC7
:1008D00097FF04C00E946806689487F82AE030E019
:1008E0005E014FEFA41AB40AA5010E940A06782EF1
:1008F0007A1886FECFC0882D8E7F791408F0C9C083
:1009000084FE1DC182FC11C12EEE8222B92C882DDD
:10091000867809F4CBC00EC131E08ACF311501F1E0
:10092000085F1F4F8FE3898321E0822E912C5E01A7
:100930002FEFA21AB20AE89477F873FC03C086146A
:100940009104F0F18114910409F041C0611409F49B
:100950003BCFB60180E290E00E94DA056A94F6CFC0
:100960000C5F1F4FDFCFF801808189830E5F1F4F1F
:1009700091E0892E912C5E01FFEFAF1ABF0ADBCF09
:10098000F801A190B1908F01692D70E076FC02C052
:100990006FEF7FEFC5010E94CF054C01CCCFF8016E
:1009A000A190B1908F01692D70E076FC02C06FEFCD
:1009B0007FEFC5010E94C4054C01689477F8BDCF54
:1009C000B60180E290E00E94DA056A94B8CFF501A2
:1009D00077FC859177FE81915F01B60190E00E94DE
:1009E000DA0581E0611001C080E0681AF1E08F1A39
:1009F0009108A8CF61917191872F880F880B982F4C
:100A000063CF9537C9F4872CE89484F82AE030E066
:100A1000F80187FE39C061917191819191918F01A7
:100A20005E01FFEFAF1ABF0AA5010E940A06782EE9
:100A30007A18E89487F85DCF872D897F882E9037C4
:100A400099F058F49835A9F09F36D9F0F6018681CF
:100A500097812B96EFE00C948C069837B9F774FCCD
:100A600005C020E130E0D4CF689484F8689482F81F
:100A7000F8CF74FE03C0E72DE6608E2E20E132E051
:100A8000C7CF28E030E0C4CF6191719180E090E061
:100A9000C6CF882EB72C84FE3ACFFE01E70DF11D9C
:100AA0008081803309F044C049EE842283FC0EC06B
:100AB00080FE51C0972CB61418F4960C9B18B62CD7
:100AC000862D8B196B1408F480E0B80EB61408F06C
:100AD00044C06B1884FE43C0B60180E390E00E94DE
:100AE000DA0582FE09C088E590E081FC02C088E753
:100AF00090E0B6010E94DA057914E0F15E018FEF13
:100B0000A81AB80A7A9482E0882E912C8C0E9D1E29
:100B1000870C911CF40182914F01B60190E00E9474
:100B2000DA058A149B04B1F711CFB92C882EB5CF02
:100B300082FC02C0B394BACFB394B394B7CFB92CAC
:100B4000882EE5CEB60180E290E00E94DA05A394FB
:100B5000A614C0F3B5CFAB2CFBCF612CBBCF882D37
:100B6000867851F280E281FC8BE287FC8DE2B6014F
:100B700090E0C0CFB60180E390E00E94DA059A943D
:100B8000BBCF8FEF9FEF65CFFC01059061507040A8
:100B90000110D8F7809590958E0F9F1F0895FC0146
:100BA0006150704001900110D8F7809590958E0F9C
:100BB0009F1F08950F931F93CF93DF93182F092F33
:100BC000EB018B8181FD09C00FEF1FEF812F902F6B
:100BD000DF91CF911F910F91089582FF14C02E8154
:100BE0003F818C819D81281739073CF4E881F98188
:100BF000CF0101968883998310838E819F8101960E
:100C00008E839F83E3CFE885F985812F0995892B12
:100C1000A1F3DACFFA01AA27283051F1203181F16E
:100C2000E8946F936E7F6E5F7F4F8F4F9F4FAF4FF4
:100C3000B1E03ED0B4E03CD0670F781F891F9A1F07
:100C4000A11D680F791F8A1F911DA11D6A0F711DBB
:100C5000811D911DA11D20D009F468943F912AE0C7
:100C6000269F11243019305D3193DEF6CF010895AF
:100C7000462F4770405D4193B3E00FD0C9F7F6CFE0
:100C8000462F4F70405D4A3318F0495D31FD4052A8
:100C9000419302D0A9F7EACFB4E0A695979587953E
:100CA00077956795BA95C9F700976105710508951D
:100CB0009B01AC010A2E06945795479537952795C9
:100CC000BA95C9F7620F731F841F951FA01D089561
:100CD00090958095709561957F4F8F4F9F4F0895A8
:100CE0002F923F924F925F926F927F928F929F923C
:100CF000AF92BF92CF92DF92EF92FF920F931F932A
:100D0000CF93DF93CDB7DEB7CA1BDB0BCDBFDEBF02
:100D100009942A88398848885F846E847D848C840D
:100D20009B84AA84B984C884DF80EE80FD800C8116
:100D30001B81AA81B981CE0FD11DCDBFDEBFED01D0
:060D40000895F894FFCFB6
:100D4600496E76616C6964204353554D2120657860
:100D560070656374656420257820676F7420257834
:100D66000A005374617274696E672075702E2E2E98
:100D76000042616420736C6F742025640A0053502E
:100D86004920636F6C6C6973696F6E2100556E6BD9
:100D96006E6F776E20636F6D6D616E642025780AC5
:010DA600004C
:0E0DA70000000002000000009B0000000000A1
:00000001FF
